{
  "address": "0xEEF13Ef9eD9cDD169701eeF3cd832df298dD1bB4",
  "abi": [
    {
      "inputs": [],
      "stateMutability": "nonpayable",
      "type": "constructor"
    },
    {
      "inputs": [
        {
          "internalType": "address",
          "name": "owner",
          "type": "address"
        }
      ],
      "name": "OwnableInvalidOwner",
      "type": "error"
    },
    {
      "inputs": [
        {
          "internalType": "address",
          "name": "account",
          "type": "address"
        }
      ],
      "name": "OwnableUnauthorizedAccount",
      "type": "error"
    },
    {
      "inputs": [
        {
          "internalType": "uint256",
          "name": "value",
          "type": "uint256"
        },
        {
          "internalType": "uint256",
          "name": "length",
          "type": "uint256"
        }
      ],
      "name": "StringsInsufficientHexLength",
      "type": "error"
    },
    {
      "anonymous": false,
      "inputs": [
        {
          "indexed": true,
          "internalType": "address",
          "name": "user",
          "type": "address"
        },
        {
          "indexed": false,
          "internalType": "address",
          "name": "contractAddress",
          "type": "address"
        },
        {
          "indexed": false,
          "internalType": "string",
          "name": "stampId",
          "type": "string"
        },
        {
          "indexed": false,
          "internalType": "string",
          "name": "name",
          "type": "string"
        },
        {
          "indexed": false,
          "internalType": "string",
          "name": "symbol",
          "type": "string"
        }
      ],
      "name": "ContractCreated",
      "type": "event"
    },
    {
      "anonymous": false,
      "inputs": [
        {
          "indexed": true,
          "internalType": "address",
          "name": "user",
          "type": "address"
        },
        {
          "indexed": false,
          "internalType": "address",
          "name": "contractAddress",
          "type": "address"
        },
        {
          "indexed": false,
          "internalType": "string",
          "name": "stampId",
          "type": "string"
        },
        {
          "indexed": false,
          "internalType": "uint256",
          "name": "tokenId",
          "type": "uint256"
        },
        {
          "indexed": false,
          "internalType": "string",
          "name": "fileName",
          "type": "string"
        },
        {
          "indexed": false,
          "internalType": "string",
          "name": "dataURI",
          "type": "string"
        }
      ],
      "name": "NFTMinted",
      "type": "event"
    },
    {
      "anonymous": false,
      "inputs": [
        {
          "indexed": true,
          "internalType": "address",
          "name": "previousOwner",
          "type": "address"
        },
        {
          "indexed": true,
          "internalType": "address",
          "name": "newOwner",
          "type": "address"
        }
      ],
      "name": "OwnershipTransferred",
      "type": "event"
    },
    {
      "inputs": [
        {
          "internalType": "string",
          "name": "stampId",
          "type": "string"
        },
        {
          "internalType": "string",
          "name": "name",
          "type": "string"
        },
        {
          "internalType": "string",
          "name": "symbol",
          "type": "string"
        }
      ],
      "name": "createContract",
      "outputs": [
        {
          "internalType": "address",
          "name": "",
          "type": "address"
        }
      ],
      "stateMutability": "nonpayable",
      "type": "function"
    },
    {
      "inputs": [
        {
          "internalType": "string",
          "name": "stampId",
          "type": "string"
        },
        {
          "internalType": "string",
          "name": "fileName",
          "type": "string"
        },
        {
          "internalType": "string",
          "name": "dataURI",
          "type": "string"
        },
        {
          "internalType": "string",
          "name": "name",
          "type": "string"
        },
        {
          "internalType": "string",
          "name": "symbol",
          "type": "string"
        }
      ],
      "name": "createContractAndMint",
      "outputs": [
        {
          "internalType": "address",
          "name": "",
          "type": "address"
        },
        {
          "internalType": "uint256",
          "name": "",
          "type": "uint256"
        }
      ],
      "stateMutability": "nonpayable",
      "type": "function"
    },
    {
      "inputs": [
        {
          "internalType": "string",
          "name": "stampId",
          "type": "string"
        }
      ],
      "name": "getContractAddress",
      "outputs": [
        {
          "internalType": "address",
          "name": "",
          "type": "address"
        }
      ],
      "stateMutability": "view",
      "type": "function"
    },
    {
      "inputs": [
        {
          "internalType": "string",
          "name": "stampId",
          "type": "string"
        }
      ],
      "name": "getStampIdOwner",
      "outputs": [
        {
          "internalType": "address",
          "name": "",
          "type": "address"
        }
      ],
      "stateMutability": "view",
      "type": "function"
    },
    {
      "inputs": [
        {
          "internalType": "address",
          "name": "user",
          "type": "address"
        }
      ],
      "name": "getUserStampIds",
      "outputs": [
        {
          "internalType": "string[]",
          "name": "",
          "type": "string[]"
        }
      ],
      "stateMutability": "view",
      "type": "function"
    },
    {
      "inputs": [
        {
          "internalType": "string",
          "name": "stampId",
          "type": "string"
        }
      ],
      "name": "hasContract",
      "outputs": [
        {
          "internalType": "bool",
          "name": "",
          "type": "bool"
        },
        {
          "internalType": "address",
          "name": "",
          "type": "address"
        }
      ],
      "stateMutability": "view",
      "type": "function"
    },
    {
      "inputs": [
        {
          "internalType": "string",
          "name": "stampId",
          "type": "string"
        },
        {
          "internalType": "string",
          "name": "dataURI",
          "type": "string"
        }
      ],
      "name": "isReferenceMinted",
      "outputs": [
        {
          "internalType": "bool",
          "name": "",
          "type": "bool"
        }
      ],
      "stateMutability": "view",
      "type": "function"
    },
    {
      "inputs": [
        {
          "internalType": "string",
          "name": "stampId",
          "type": "string"
        },
        {
          "internalType": "string",
          "name": "fileName",
          "type": "string"
        },
        {
          "internalType": "string",
          "name": "dataURI",
          "type": "string"
        },
        {
          "internalType": "string",
          "name": "name",
          "type": "string"
        },
        {
          "internalType": "string",
          "name": "symbol",
          "type": "string"
        }
      ],
      "name": "mintNFT",
      "outputs": [
        {
          "internalType": "uint256",
          "name": "",
          "type": "uint256"
        }
      ],
      "stateMutability": "nonpayable",
      "type": "function"
    },
    {
      "inputs": [],
      "name": "owner",
      "outputs": [
        {
          "internalType": "address",
          "name": "",
          "type": "address"
        }
      ],
      "stateMutability": "view",
      "type": "function"
    },
    {
      "inputs": [],
      "name": "renounceOwnership",
      "outputs": [],
      "stateMutability": "nonpayable",
      "type": "function"
    },
    {
      "inputs": [
        {
          "internalType": "string",
          "name": "",
          "type": "string"
        }
      ],
      "name": "stampIdToContract",
      "outputs": [
        {
          "internalType": "address",
          "name": "",
          "type": "address"
        }
      ],
      "stateMutability": "view",
      "type": "function"
    },
    {
      "inputs": [
        {
          "internalType": "string",
          "name": "",
          "type": "string"
        }
      ],
      "name": "stampIdToOwner",
      "outputs": [
        {
          "internalType": "address",
          "name": "",
          "type": "address"
        }
      ],
      "stateMutability": "view",
      "type": "function"
    },
    {
      "inputs": [
        {
          "internalType": "address",
          "name": "newOwner",
          "type": "address"
        }
      ],
      "name": "transferOwnership",
      "outputs": [],
      "stateMutability": "nonpayable",
      "type": "function"
    },
    {
      "inputs": [
        {
          "internalType": "address",
          "name": "",
          "type": "address"
        },
        {
          "internalType": "uint256",
          "name": "",
          "type": "uint256"
        }
      ],
      "name": "userStampIds",
      "outputs": [
        {
          "internalType": "string",
          "name": "",
          "type": "string"
        }
      ],
      "stateMutability": "view",
      "type": "function"
    }
  ],
  "transactionHash": "0x17b6695a91f662a774691f27351afdb1a276dd15b3653824e81c5992501d9991",
  "args": [],
  "numDeployments": 1,
  "solcInputHash": "ae4ba2f8442d1cfc1f4dc8ef6fa0f40f",
  "bytecode": "0x608060405234801561001057600080fd5b50338061003757604051631e4fbdf760e01b81526000600482015260240160405180910390fd5b61004081610046565b50610096565b600080546001600160a01b038381166001600160a01b0319831681178455604051919092169283917f8be0079c531659141344cd1fd0a4f28419497f9722a3daafe3b4186f6b6457e09190a35050565b613af9806100a56000396000f3fe60806040523480156200001157600080fd5b5060043610620000fd5760003560e01c806390df64531162000097578063c4829f07116200006e578063c4829f071462000273578063de2143d814620002aa578063ec1d8fa314620002c1578063f2fde38b14620002f857600080fd5b806390df6453146200021057806391d8c3011462000227578063b3acaaa0146200024d57600080fd5b8063759bb0b411620000d8578063759bb0b4146200016a578063865143bf14620001a15780638c22360114620001c75780638da5cb5b14620001fe57600080fd5b806304433bbc14620001025780633f238ffd1462000136578063715018a6146200015e575b600080fd5b62000119620001133660046200111b565b6200030f565b6040516001600160a01b0390911681526020015b60405180910390f35b6200014d6200014736600462001154565b62000342565b60405190151581526020016200012d565b6200016862000402565b005b620001196200017b3660046200111b565b80516020818301810180516001825292820191909301209152546001600160a01b031681565b620001b8620001b2366004620011dc565b6200041a565b6040516200012d91906200125d565b620001de620001d83660046200111b565b620004dc565b6040805192151583526001600160a01b039091166020830152016200012d565b6000546001600160a01b031662000119565b62000119620002213660046200111b565b62000519565b6200023e6200023836600462001279565b6200052d565b6040519081526020016200012d565b620002646200025e3660046200135b565b620007d5565b6040516200012d919062001379565b62000119620002843660046200111b565b80516020818301810180516003825292820191909301209152546001600160a01b031681565b62000119620002bb366004620013e1565b620008ce565b620002d8620002d236600462001279565b62000a93565b604080516001600160a01b0390931683526020830191909152016200012d565b62000168620003093660046200135b565b62000bfd565b600060018260405162000323919062001473565b908152604051908190036020019020546001600160a01b031692915050565b60008060018460405162000357919062001473565b908152604051908190036020019020546001600160a01b031690508062000383576000915050620003fc565b604051632e03304560e01b815281906001600160a01b03821690632e03304590620003b39087906004016200125d565b602060405180830381865afa158015620003d1573d6000803e3d6000fd5b505050506040513d601f19601f82011682018060405250810190620003f7919062001491565b925050505b92915050565b6200040c62000c41565b62000418600062000c70565b565b600260205281600052604060002081815481106200043757600080fd5b906000526020600020016000915091505080546200045590620014b5565b80601f01602080910402602001604051908101604052809291908181526020018280546200048390620014b5565b8015620004d45780601f10620004a857610100808354040283529160200191620004d4565b820191906000526020600020905b815481529060010190602001808311620004b657829003601f168201915b505050505081565b6000806000600184604051620004f3919062001473565b908152604051908190036020019020546001600160a01b03168015159590945092505050565b600060038260405162000323919062001473565b6000808651116200055b5760405162461bcd60e51b81526004016200055290620014f1565b60405180910390fd5b60006001876040516200056f919062001473565b908152604051908190036020019020546001600160a01b0316905080620005a6576200059e3388868662000cc0565b90506200062a565b336001600160a01b0316600388604051620005c2919062001473565b908152604051908190036020019020546001600160a01b0316146200062a5760405162461bcd60e51b815260206004820152601b60248201527f596f7520646f6e2774206f776e2074686973207374616d702049440000000000604482015260640162000552565b604051632e03304560e01b815281906001600160a01b03821690632e033045906200065a9089906004016200125d565b602060405180830381865afa15801562000678573d6000803e3d6000fd5b505050506040513d601f19601f820116820180604052508101906200069e919062001491565b15620007015760405162461bcd60e51b815260206004820152602b60248201527f5468697320646174612068617320616c7265616479206265656e206d696e746560448201526a1908185cc8185b8813919560aa1b606482015260840162000552565b604051630990711960e41b81526000906001600160a01b03831690639907119090620007369033908c908c9060040162001528565b6020604051808303816000875af115801562000756573d6000803e3d6000fd5b505050506040513d601f19601f820116820180604052508101906200077c91906200156c565b9050336001600160a01b03167f7cbe362fb09608c2bc67c9783141f13226c45692bfb8070c4839ae039545ddf0848b848c8c604051620007c195949392919062001586565b60405180910390a298975050505050505050565b6001600160a01b0381166000908152600260209081526040808320805482518185028101850190935280835260609492939192909184015b82821015620008c35783829060005260206000200180546200082f90620014b5565b80601f01602080910402602001604051908101604052809291908181526020018280546200085d90620014b5565b8015620008ae5780601f106200088257610100808354040283529160200191620008ae565b820191906000526020600020905b8154815290600101906020018083116200089057829003601f168201915b5050505050815260200190600101906200080d565b505050509050919050565b6000806001600160a01b0316600185604051620008ec919062001473565b908152604051908190036020019020546001600160a01b031614620009255760405162461bcd60e51b81526004016200055290620015e8565b6000845111620009495760405162461bcd60e51b81526004016200055290620014f1565b6000838333876040516200095d9062001062565b6200096c949392919062001631565b604051809103906000f08015801562000989573d6000803e3d6000fd5b509050600081905080600187604051620009a4919062001473565b908152602001604051809103902060006101000a8154816001600160a01b0302191690836001600160a01b0316021790555033600387604051620009e9919062001473565b908152604080516020928190038301902080546001600160a01b0319166001600160a01b03949094169390931790925533600090815260028252918220805460018101825590835291200162000a408782620016df565b50336001600160a01b03167f452e61f5ac6d53d7d7efeb874a1c32eccf08218a3d07987e8501e5f7dbac87068288888860405162000a829493929190620017ac565b60405180910390a295945050505050565b60008060006001600160a01b031660018860405162000ab3919062001473565b908152604051908190036020019020546001600160a01b03161462000aec5760405162461bcd60e51b81526004016200055290620015e8565b600087511162000b105760405162461bcd60e51b81526004016200055290620014f1565b600062000b203389878762000cc0565b604051630990711960e41b815290915081906000906001600160a01b0383169063990711909062000b5a9033908d908d9060040162001528565b6020604051808303816000875af115801562000b7a573d6000803e3d6000fd5b505050506040513d601f19601f8201168201806040525081019062000ba091906200156c565b9050336001600160a01b03167f7cbe362fb09608c2bc67c9783141f13226c45692bfb8070c4839ae039545ddf0848c848d8d60405162000be595949392919062001586565b60405180910390a29199919850909650505050505050565b62000c0762000c41565b6001600160a01b03811662000c3357604051631e4fbdf760e01b81526000600482015260240162000552565b62000c3e8162000c70565b50565b6000546001600160a01b03163314620004185760405163118cdaa760e01b815233600482015260240162000552565b600080546001600160a01b038381166001600160a01b0319831681178455604051919092169283917f8be0079c531659141344cd1fd0a4f28419497f9722a3daafe3b4186f6b6457e09190a35050565b600080600084511162000d2557604051806040016040528060168152602001750213abd3d26b4b73a1021b7b63632b1ba34b7b71016960551b8152508560405160200162000d10929190620017fc565b60405160208183030381529060405262000d27565b835b905060008084511162000d8a5760408051808201909152600581526442555a5a2d60d81b602082015262000d6262ffffff8916600662000ec4565b60405160200162000d75929190620017fc565b60405160208183030381529060405262000d8c565b835b905060008282898960405162000da29062001062565b62000db1949392919062001631565b604051809103906000f08015801562000dce573d6000803e3d6000fd5b50905060008190508060018960405162000de9919062001473565b908152602001604051809103902060006101000a8154816001600160a01b0302191690836001600160a01b031602179055508860038960405162000e2e919062001473565b908152604080516020928190038301902080546001600160a01b0319166001600160a01b03948516179055918b16600090815260028252918220805460018101825590835291200162000e828982620016df565b50886001600160a01b03167f452e61f5ac6d53d7d7efeb874a1c32eccf08218a3d07987e8501e5f7dbac8706828a8787604051620007c19493929190620017ac565b606082600062000ed684600262001845565b62000ee39060026200185f565b67ffffffffffffffff81111562000efe5762000efe62001070565b6040519080825280601f01601f19166020018201604052801562000f29576020820181803683370190505b509050600360fc1b8160008151811062000f475762000f4762001875565b60200101906001600160f81b031916908160001a905350600f60fb1b8160018151811062000f795762000f7962001875565b60200101906001600160f81b031916908160001a905350600062000f9f85600262001845565b62000fac9060016200185f565b90505b60018111156200102e576f181899199a1a9b1b9c1cb0b131b232b360811b83600f166010811062000fe45762000fe462001875565b1a60f81b82828151811062000ffd5762000ffd62001875565b60200101906001600160f81b031916908160001a90535060049290921c9162001026816200188b565b905062000faf565b5081156200105a5760405163e22e27eb60e01b8152600481018690526024810185905260440162000552565b949350505050565b61221e80620018a683390190565b634e487b7160e01b600052604160045260246000fd5b600082601f8301126200109857600080fd5b813567ffffffffffffffff80821115620010b657620010b662001070565b604051601f8301601f19908116603f01168101908282118183101715620010e157620010e162001070565b81604052838152866020858801011115620010fb57600080fd5b836020870160208301376000602085830101528094505050505092915050565b6000602082840312156200112e57600080fd5b813567ffffffffffffffff8111156200114657600080fd5b6200105a8482850162001086565b600080604083850312156200116857600080fd5b823567ffffffffffffffff808211156200118157600080fd5b6200118f8683870162001086565b93506020850135915080821115620011a657600080fd5b50620011b58582860162001086565b9150509250929050565b80356001600160a01b0381168114620011d757600080fd5b919050565b60008060408385031215620011f057600080fd5b620011fb83620011bf565b946020939093013593505050565b60005b83811015620012265781810151838201526020016200120c565b50506000910152565b600081518084526200124981602086016020860162001209565b601f01601f19169290920160200192915050565b6020815260006200127260208301846200122f565b9392505050565b600080600080600060a086880312156200129257600080fd5b853567ffffffffffffffff80821115620012ab57600080fd5b620012b989838a0162001086565b96506020880135915080821115620012d057600080fd5b620012de89838a0162001086565b95506040880135915080821115620012f557600080fd5b6200130389838a0162001086565b945060608801359150808211156200131a57600080fd5b6200132889838a0162001086565b935060808801359150808211156200133f57600080fd5b506200134e8882890162001086565b9150509295509295909350565b6000602082840312156200136e57600080fd5b6200127282620011bf565b600060208083016020845280855180835260408601915060408160051b87010192506020870160005b82811015620013d457603f19888603018452620013c18583516200122f565b94509285019290850190600101620013a2565b5092979650505050505050565b600080600060608486031215620013f757600080fd5b833567ffffffffffffffff808211156200141057600080fd5b6200141e8783880162001086565b945060208601359150808211156200143557600080fd5b620014438783880162001086565b935060408601359150808211156200145a57600080fd5b50620014698682870162001086565b9150509250925092565b600082516200148781846020870162001209565b9190910192915050565b600060208284031215620014a457600080fd5b815180151581146200127257600080fd5b600181811c90821680620014ca57607f821691505b602082108103620014eb57634e487b7160e01b600052602260045260246000fd5b50919050565b60208082526018908201527f5374616d702049442063616e6e6f7420626520656d7074790000000000000000604082015260600190565b6001600160a01b03841681526060602082018190526000906200154e908301856200122f565b82810360408401526200156281856200122f565b9695505050505050565b6000602082840312156200157f57600080fd5b5051919050565b6001600160a01b038616815260a060208201819052600090620015ac908301876200122f565b8560408401528281036060840152620015c681866200122f565b90508281036080840152620015dc81856200122f565b98975050505050505050565b60208082526029908201527f436f6e747261637420616c72656164792065786973747320666f722074686973604082015268081cdd185b5c08125160ba1b606082015260800190565b6080815260006200164660808301876200122f565b82810360208401526200165a81876200122f565b6001600160a01b0386166040850152838103606085015290506200167f81856200122f565b979650505050505050565b601f821115620016da576000816000526020600020601f850160051c81016020861015620016b55750805b601f850160051c820191505b81811015620016d657828155600101620016c1565b5050505b505050565b815167ffffffffffffffff811115620016fc57620016fc62001070565b62001714816200170d8454620014b5565b846200168a565b602080601f8311600181146200174c5760008415620017335750858301515b600019600386901b1c1916600185901b178555620016d6565b600085815260208120601f198616915b828110156200177d578886015182559484019460019091019084016200175c565b50858210156200179c5787850151600019600388901b60f8161c191681555b5050505050600190811b01905550565b6001600160a01b0385168152608060208201819052600090620017d2908301866200122f565b8281036040840152620017e681866200122f565b905082810360608401526200167f81856200122f565b600083516200181081846020880162001209565b8351908301906200182681836020880162001209565b01949350505050565b634e487b7160e01b600052601160045260246000fd5b8082028115828204841417620003fc57620003fc6200182f565b80820180821115620003fc57620003fc6200182f565b634e487b7160e01b600052603260045260246000fd5b6000816200189d576200189d6200182f565b50600019019056fe60806040523480156200001157600080fd5b506040516200221e3803806200221e8339810160408190526200003491620001dc565b818484600262000045838262000320565b50600362000054828262000320565b50600160005550506001600160a01b0381166200008b57604051631e4fbdf760e01b81526000600482015260240160405180910390fd5b6200009681620000c2565b50600d80546001600160a01b03191633179055600e620000b7828262000320565b5050505050620003ec565b600980546001600160a01b038381166001600160a01b0319831681179093556040519116919082907f8be0079c531659141344cd1fd0a4f28419497f9722a3daafe3b4186f6b6457e090600090a35050565b634e487b7160e01b600052604160045260246000fd5b600082601f8301126200013c57600080fd5b81516001600160401b038082111562000159576200015962000114565b604051601f8301601f19908116603f0116810190828211818310171562000184576200018462000114565b8160405283815260209250866020858801011115620001a257600080fd5b600091505b83821015620001c65785820183015181830184015290820190620001a7565b6000602085830101528094505050505092915050565b60008060008060808587031215620001f357600080fd5b84516001600160401b03808211156200020b57600080fd5b62000219888389016200012a565b955060208701519150808211156200023057600080fd5b6200023e888389016200012a565b604088015190955091506001600160a01b03821682146200025e57600080fd5b6060870151919350808211156200027457600080fd5b5062000283878288016200012a565b91505092959194509250565b600181811c90821680620002a457607f821691505b602082108103620002c557634e487b7160e01b600052602260045260246000fd5b50919050565b601f8211156200031b576000816000526020600020601f850160051c81016020861015620002f65750805b601f850160051c820191505b81811015620003175782815560010162000302565b5050505b505050565b81516001600160401b038111156200033c576200033c62000114565b62000354816200034d84546200028f565b84620002cb565b602080601f8311600181146200038c5760008415620003735750858301515b600019600386901b1c1916600185901b17855562000317565b600085815260208120601f198616915b82811015620003bd578886015182559484019460019091019084016200039c565b5085821015620003dc5787850151600019600388901b60f8161c191681555b5050505050600190811b01905550565b611e2280620003fc6000396000f3fe6080604052600436106101665760003560e01c8063715018a6116100d1578063a22cb4651161008a578063caa0f92a11610064578063caa0f92a146103f1578063d3f44e7114610406578063e985e9c514610426578063f2fde38b1461044657600080fd5b8063a22cb4651461039e578063b88d4fde146103be578063c87b56dd146103d157600080fd5b8063715018a6146102f657806383c17c551461030b5780638da5cb5b1461032b57806395d89b4114610349578063966dae0e1461035e578063990711901461037e57600080fd5b80632e033045116101235780632e0330451461024e57806342842e0e1461026e57806352d3c486146102815780635ac1e3bb146102965780636352211e146102b657806370a08231146102d657600080fd5b806301ffc9a71461016b57806306fdde03146101a0578063081812fc146101c2578063095ea7b3146101fa57806318160ddd1461020f57806323b872dd1461023b575b600080fd5b34801561017757600080fd5b5061018b610186366004611510565b610466565b60405190151581526020015b60405180910390f35b3480156101ac57600080fd5b506101b56104b8565b604051610197919061157d565b3480156101ce57600080fd5b506101e26101dd366004611590565b61054a565b6040516001600160a01b039091168152602001610197565b61020d6102083660046115c0565b610585565b005b34801561021b57600080fd5b5061022d600154600054036000190190565b604051908152602001610197565b61020d6102493660046115ea565b610595565b34801561025a57600080fd5b5061018b6102693660046116d2565b6106fa565b61020d61027c3660046115ea565b610725565b34801561028d57600080fd5b506101b5610745565b3480156102a257600080fd5b506101b56102b1366004611590565b6107d3565b3480156102c257600080fd5b506101e26102d1366004611590565b6108cd565b3480156102e257600080fd5b5061022d6102f1366004611707565b6108d8565b34801561030257600080fd5b5061020d61091e565b34801561031757600080fd5b5061020d610326366004611707565b610932565b34801561033757600080fd5b506009546001600160a01b03166101e2565b34801561035557600080fd5b506101b561095c565b34801561036a57600080fd5b50600d546101e2906001600160a01b031681565b34801561038a57600080fd5b5061022d610399366004611722565b61096b565b3480156103aa57600080fd5b5061020d6103b9366004611796565b610aab565b61020d6103cc3660046117d2565b610b17565b3480156103dd57600080fd5b506101b56103ec366004611590565b610b58565b3480156103fd57600080fd5b5060005461022d565b34801561041257600080fd5b506101b5610421366004611590565b610bf2565b34801561043257600080fd5b5061018b61044136600461184e565b610c62565b34801561045257600080fd5b5061020d610461366004611707565b610c90565b60006301ffc9a760e01b6001600160e01b03198316148061049757506380ac58cd60e01b6001600160e01b03198316145b806104b25750635b5e139f60e01b6001600160e01b03198316145b92915050565b6060600280546104c790611881565b80601f01602080910402602001604051908101604052809291908181526020018280546104f390611881565b80156105405780601f1061051557610100808354040283529160200191610540565b820191906000526020600020905b81548152906001019060200180831161052357829003601f168201915b5050505050905090565b600061055582610cce565b610569576105696333d1c03960e21b610d1c565b506000908152600660205260409020546001600160a01b031690565b61059182826001610d26565b5050565b60006105a082610dc9565b6001600160a01b0394851694909150811684146105c6576105c662a1148160e81b610d1c565b60008281526006602052604090208054338082146001600160a01b0388169091141761060a576105f68633610c62565b61060a5761060a632ce44b5f60e11b610d1c565b801561061557600082555b6001600160a01b038681166000908152600560205260408082208054600019019055918716808252919020805460010190554260a01b17600160e11b17600085815260046020526040812091909155600160e11b841690036106a7576001840160008181526004602052604081205490036106a55760005481146106a55760008181526004602052604090208490555b505b6001600160a01b0385168481887fddf252ad1be2c89b69c2b068fc378daa952ba7f163c4a11628f55a4df523b3ef600080a4806000036106f1576106f1633a954ecd60e21b610d1c565b50505050505050565b6000600c8260405161070c91906118bb565b9081526040519081900360200190205460ff1692915050565b61074083838360405180602001604052806000815250610b17565b505050565b600e805461075290611881565b80601f016020809104026020016040519081016040528092919081815260200182805461077e90611881565b80156107cb5780601f106107a0576101008083540402835291602001916107cb565b820191906000526020600020905b8154815290600101906020018083116107ae57829003601f168201915b505050505081565b60606107de82610cce565b61082f5760405162461bcd60e51b815260206004820152601f60248201527f55524920717565727920666f72206e6f6e6578697374656e7420746f6b656e0060448201526064015b60405180910390fd5b6000828152600a60205260409020805461084890611881565b80601f016020809104026020016040519081016040528092919081815260200182805461087490611881565b80156108c15780601f10610896576101008083540402835291602001916108c1565b820191906000526020600020905b8154815290600101906020018083116108a457829003601f168201915b50505050509050919050565b60006104b282610dc9565b60006001600160a01b0382166108f8576108f86323d3ad8160e21b610d1c565b506001600160a01b031660009081526005602052604090205467ffffffffffffffff1690565b610926610e6a565b6109306000610e97565b565b61093a610e6a565b600d80546001600160a01b0319166001600160a01b0392909216919091179055565b6060600380546104c790611881565b600d546000906001600160a01b031633148061099157506009546001600160a01b031633145b6109dd5760405162461bcd60e51b815260206004820152601e60248201527f4f6e6c7920666163746f7279206f72206f776e65722063616e206d696e7400006044820152606401610826565b6001600c836040516109ef91906118bb565b908152604051908190036020019020805491151560ff199092169190911790556000610a1a60005490565b9050610a27856001610ee9565b6000818152600a60205260409020610a3f8482611927565b506000818152600b60205260409020610a588582611927565b50846001600160a01b03167f08e104333ed368976965323e931546a1f5285f5d0fbbca7fcff8e87ebb5fc7da828686600e604051610a9994939291906119e7565b60405180910390a290505b9392505050565b3360008181526007602090815260408083206001600160a01b03871680855290835292819020805460ff191686151590811790915590519081529192917f17307eab39ab6107e8899845ad3d59bd9653f200f220920489ca2b5937696c31910160405180910390a35050565b610b22848484610595565b6001600160a01b0383163b15610b5257610b3e84848484610fa8565b610b5257610b526368d2bf6b60e11b610d1c565b50505050565b6060610b6382610cce565b610baf5760405162461bcd60e51b815260206004820152601f60248201527f55524920717565727920666f72206e6f6e6578697374656e7420746f6b656e006044820152606401610826565b6000610bba8361108b565b90506000610bc7826111e9565b905080604051602001610bda9190611a9e565b60405160208183030381529060405292505050919050565b6060610bfd82610cce565b610c495760405162461bcd60e51b815260206004820181905260248201527f4e616d6520717565727920666f72206e6f6e6578697374656e7420746f6b656e6044820152606401610826565b6000828152600b60205260409020805461084890611881565b6001600160a01b03918216600090815260076020908152604080832093909416825291909152205460ff1690565b610c98610e6a565b6001600160a01b038116610cc257604051631e4fbdf760e01b815260006004820152602401610826565b610ccb81610e97565b50565b600081600111610d1757600054821015610d175760005b5060008281526004602052604081205490819003610d0d57610d0683611af9565b9250610ce5565b600160e01b161590505b919050565b8060005260046000fd5b6000610d31836108cd565b9050818015610d495750336001600160a01b03821614155b15610d6c57610d588133610c62565b610d6c57610d6c6367d9dca160e11b610d1c565b60008381526006602052604080822080546001600160a01b0319166001600160a01b0388811691821790925591518693918516917f8c5be1e5ebec7d5bd14f71427d1e84f3dd0314c0f7b2291e5b200ac8c7c3b92591a450505050565b600081600111610e5a575060008181526004602052604090205480600003610e47576000548210610e0457610e04636f96cda160e11b610d1c565b5b50600019016000818152600460205260409020548015610e0557600160e01b8116600003610e3257919050565b610e42636f96cda160e11b610d1c565b610e05565b600160e01b8116600003610e5a57919050565b610d17636f96cda160e11b610d1c565b6009546001600160a01b031633146109305760405163118cdaa760e01b8152336004820152602401610826565b600980546001600160a01b038381166001600160a01b0319831681179093556040519116919082907f8be0079c531659141344cd1fd0a4f28419497f9722a3daafe3b4186f6b6457e090600090a35050565b6000805490829003610f0557610f0563b562e8dd60e01b610d1c565b60008181526004602090815260408083206001600160a01b0387164260a01b6001881460e11b17811790915580845260059092528220805468010000000000000001860201905590819003610f6357610f63622e076360e81b610d1c565b818301825b808360007fddf252ad1be2c89b69c2b068fc378daa952ba7f163c4a11628f55a4df523b3ef600080a4818160010191508103610f68575060005550505050565b604051630a85bd0160e11b81526000906001600160a01b0385169063150b7a0290610fdd903390899088908890600401611b10565b6020604051808303816000875af1925050508015611018575060408051601f3d908101601f1916820190925261101591810190611b4d565b60015b61106d573d808015611046576040519150601f19603f3d011682016040523d82523d6000602084013e61104b565b606091505b508051600003611065576110656368d2bf6b60e11b610d1c565b805181602001fd5b6001600160e01b031916630a85bd0160e11b1490505b949350505050565b6000818152600b60205260408120805460609291906110a990611881565b80601f01602080910402602001604051908101604052809291908181526020018280546110d590611881565b80156111225780601f106110f757610100808354040283529160200191611122565b820191906000526020600020905b81548152906001019060200180831161110557829003601f168201915b505050505090506000600a6000858152602001908152602001600020805461114990611881565b80601f016020809104026020016040519081016040528092919081815260200182805461117590611881565b80156111c25780601f10611197576101008083540402835291602001916111c2565b820191906000526020600020905b8154815290600101906020018083116111a557829003601f168201915b5050505050905081816111d48661120f565b600e604051602001610bda9493929190611bdd565b60606104b282604051806060016040528060408152602001611dad6040913960016112a2565b6060600061121c83611422565b600101905060008167ffffffffffffffff81111561123c5761123c611626565b6040519080825280601f01601f191660200182016040528015611266576020820181803683370190505b5090508181016020015b600019016f181899199a1a9b1b9c1cb0b131b232b360811b600a86061a8153600a850494508461127057509392505050565b606083516000036112c25750604080516020810190915260008152610aa4565b6000826112f3576003855160046112d99190611d60565b6112e4906002611d77565b6112ee9190611d8a565b611318565b6003855160026113039190611d77565b61130d9190611d8a565b611318906004611d60565b905060008167ffffffffffffffff81111561133557611335611626565b6040519080825280601f01601f19166020018201604052801561135f576020820181803683370190505b50905060018501602082018788518901602081018051600082525b828410156113d5576003840193508351603f8160121c168701518653600186019550603f81600c1c168701518653600186019550603f8160061c168701518653600186019550603f811687015186535060018501945061137a565b905250508515611416576003885106600181146113f9576002811461140c57611414565b603d6001830353603d6002830353611414565b603d60018303535b505b50909695505050505050565b60008072184f03e93ff9f4daa797ed6e38ed64bf6a1f0160401b83106114615772184f03e93ff9f4daa797ed6e38ed64bf6a1f0160401b830492506040015b6d04ee2d6d415b85acef8100000000831061148d576d04ee2d6d415b85acef8100000000830492506020015b662386f26fc1000083106114ab57662386f26fc10000830492506010015b6305f5e10083106114c3576305f5e100830492506008015b61271083106114d757612710830492506004015b606483106114e9576064830492506002015b600a83106104b25760010192915050565b6001600160e01b031981168114610ccb57600080fd5b60006020828403121561152257600080fd5b8135610aa4816114fa565b60005b83811015611548578181015183820152602001611530565b50506000910152565b6000815180845261156981602086016020860161152d565b601f01601f19169290920160200192915050565b602081526000610aa46020830184611551565b6000602082840312156115a257600080fd5b5035919050565b80356001600160a01b0381168114610d1757600080fd5b600080604083850312156115d357600080fd5b6115dc836115a9565b946020939093013593505050565b6000806000606084860312156115ff57600080fd5b611608846115a9565b9250611616602085016115a9565b9150604084013590509250925092565b634e487b7160e01b600052604160045260246000fd5b600067ffffffffffffffff8084111561165757611657611626565b604051601f8501601f19908116603f0116810190828211818310171561167f5761167f611626565b8160405280935085815286868601111561169857600080fd5b858560208301376000602087830101525050509392505050565b600082601f8301126116c357600080fd5b610aa48383356020850161163c565b6000602082840312156116e457600080fd5b813567ffffffffffffffff8111156116fb57600080fd5b611083848285016116b2565b60006020828403121561171957600080fd5b610aa4826115a9565b60008060006060848603121561173757600080fd5b611740846115a9565b9250602084013567ffffffffffffffff8082111561175d57600080fd5b611769878388016116b2565b9350604086013591508082111561177f57600080fd5b5061178c868287016116b2565b9150509250925092565b600080604083850312156117a957600080fd5b6117b2836115a9565b9150602083013580151581146117c757600080fd5b809150509250929050565b600080600080608085870312156117e857600080fd5b6117f1856115a9565b93506117ff602086016115a9565b925060408501359150606085013567ffffffffffffffff81111561182257600080fd5b8501601f8101871361183357600080fd5b6118428782356020840161163c565b91505092959194509250565b6000806040838503121561186157600080fd5b61186a836115a9565b9150611878602084016115a9565b90509250929050565b600181811c9082168061189557607f821691505b6020821081036118b557634e487b7160e01b600052602260045260246000fd5b50919050565b600082516118cd81846020870161152d565b9190910192915050565b601f821115610740576000816000526020600020601f850160051c810160208610156119005750805b601f850160051c820191505b8181101561191f5782815560010161190c565b505050505050565b815167ffffffffffffffff81111561194157611941611626565b6119558161194f8454611881565b846118d7565b602080601f83116001811461198a57600084156119725750858301515b600019600386901b1c1916600185901b17855561191f565b600085815260208120601f198616915b828110156119b95788860151825594840194600190910190840161199a565b50858210156119d75787850151600019600388901b60f8161c191681555b5050505050600190811b01905550565b84815260006020608081840152611a016080840187611551565b8381036040850152611a138187611551565b9050838103606085015260008554611a2a81611881565b80845260018281168015611a455760018114611a5f57611a8d565b60ff1984168688015282151560051b860187019450611a8d565b896000528660002060005b84811015611a855781548882018a0152908301908801611a6a565b870188019550505b50929b9a5050505050505050505050565b7f646174613a6170706c69636174696f6e2f6a736f6e3b6261736536342c000000815260008251611ad681601d85016020870161152d565b91909101601d0192915050565b634e487b7160e01b600052601160045260246000fd5b600081611b0857611b08611ae3565b506000190190565b6001600160a01b0385811682528416602082015260408101839052608060608201819052600090611b4390830184611551565b9695505050505050565b600060208284031215611b5f57600080fd5b8151610aa4816114fa565b60008154611b7781611881565b60018281168015611b8f5760018114611ba457611bd3565b60ff1984168752821515830287019450611bd3565b8560005260208060002060005b85811015611bca5781548a820152908401908201611bb1565b50505082870194505b5050505092915050565b683d913730b6b2911d1160b91b81528451600090611c02816009850160208a0161152d565b7f222c226465736372697074696f6e223a2241492d706f7765726564204e4654206009918401918201527f6372656174656420776974682042757a7a4d696e74222c22696d616765223a2260298201528551611c65816049840160208a0161152d565b7f222c2261747472696275746573223a5b7b2274726169745f74797065223a2254604992909101918201527137b5b2b71024a21116113b30b63ab2911d1160711b60698201528451611cbe81607b84016020890161152d565b7f227d2c7b2274726169745f74797065223a22506c6174666f726d222c2276616c607b92909101918201527f7565223a2242757a7a4d696e74227d2c7b2274726169745f74797065223a2243609b8201527f6f6c6c656374696f6e204944222c2276616c7565223a2200000000000000000060bb820152611d55611d4560d2830186611b6a565b63227d5d7d60e01b815260040190565b979650505050505050565b80820281158282048414176104b2576104b2611ae3565b808201808211156104b2576104b2611ae3565b600082611da757634e487b7160e01b600052601260045260246000fd5b50049056fe4142434445464748494a4b4c4d4e4f505152535455565758595a6162636465666768696a6b6c6d6e6f707172737475767778797a303132333435363738392b2fa264697066735822122009725ae9de9b889bf197c2abd588244ff008c3949fbd30315a7713e22e09372364736f6c63430008170033a2646970667358221220b00a0578a147960a25963a5b725d702444f4c64b74017f56b2304e99d3b447dc64736f6c63430008170033",
  "devdoc": {
    "details": "Factory contract for deploying and managing BuzzMintCollection contracts",
    "errors": {
      "OwnableInvalidOwner(address)": [
        {
          "details": "The owner is not a valid owner account. (eg. `address(0)`)"
        }
      ],
      "OwnableUnauthorizedAccount(address)": [
        {
          "details": "The caller account is not authorized to perform an operation."
        }
      ],
      "StringsInsufficientHexLength(uint256,uint256)": [
        {
          "details": "The `value` string doesn't fit in the specified `length`."
        }
      ]
    },
    "kind": "dev",
    "methods": {
      "constructor": {
        "details": "Constructor to initialize the contract with the deployer as the owner"
      },
      "createContract(string,string,string)": {
        "details": "Creates a new BuzzMintCollection contract for a stamp ID",
        "params": {
          "name": "The name of the NFT collection",
          "stampId": "The stamp ID (collection ID) from storage",
          "symbol": "The symbol of the NFT collection"
        },
        "returns": {
          "_0": "The address of the newly created contract"
        }
      },
      "createContractAndMint(string,string,string,string,string)": {
        "details": "Creates a new contract and mints the first NFT in a single transaction",
        "params": {
          "dataURI": "The URI of the stored data",
          "fileName": "The name of the file",
          "name": "The name of the NFT collection (optional)",
          "stampId": "The stamp ID (collection ID) from storage",
          "symbol": "The symbol of the NFT collection (optional)"
        },
        "returns": {
          "_0": "The contract address and token ID"
        }
      },
      "getContractAddress(string)": {
        "details": "Gets the contract address for a stamp ID",
        "params": {
          "stampId": "The stamp ID to check"
        },
        "returns": {
          "_0": "The contract address (address(0) if doesn't exist)"
        }
      },
      "getStampIdOwner(string)": {
        "details": "Gets the owner of a stamp ID",
        "params": {
          "stampId": "The stamp ID to check"
        },
        "returns": {
          "_0": "The address of the owner"
        }
      },
      "getUserStampIds(address)": {
        "details": "Gets all stamp IDs for a user",
        "params": {
          "user": "The address of the user"
        },
        "returns": {
          "_0": "Array of stamp IDs owned by the user"
        }
      },
      "hasContract(string)": {
        "details": "Checks if a stamp ID has a deployed NFT contract",
        "params": {
          "stampId": "The stamp ID to check"
        },
        "returns": {
          "_0": "Whether the stamp ID has a deployed contract and the contract address"
        }
      },
      "isReferenceMinted(string,string)": {
        "details": "Checks if a reference has already been minted in a stamp's collection",
        "params": {
          "dataURI": "The data URI to check",
          "stampId": "The stamp ID (collection ID)"
        },
        "returns": {
          "_0": "Whether the reference has been minted"
        }
      },
      "mintNFT(string,string,string,string,string)": {
        "details": "Mints a new NFT for a stamp ID (creates collection if doesn't exist)",
        "params": {
          "dataURI": "The URI of the stored data",
          "fileName": "The name of the file",
          "name": "The name of the NFT collection (optional, used only if creating new)",
          "stampId": "The stamp ID (collection ID) from storage",
          "symbol": "The symbol of the NFT collection (optional, used only if creating new)"
        },
        "returns": {
          "_0": "The token ID of the minted NFT"
        }
      },
      "owner()": {
        "details": "Returns the address of the current owner."
      },
      "renounceOwnership()": {
        "details": "Leaves the contract without owner. It will not be possible to call `onlyOwner` functions. Can only be called by the current owner. NOTE: Renouncing ownership will leave the contract without an owner, thereby disabling any functionality that is only available to the owner."
      },
      "transferOwnership(address)": {
        "details": "Transfers ownership of the contract to a new account (`newOwner`). Can only be called by the current owner."
      }
    },
    "title": "BuzzMintCollectionFactory",
    "version": 1
  },
  "userdoc": {
    "kind": "user",
    "methods": {},
    "version": 1
  },
  "storageLayout": {
    "storage": [
      {
        "astId": 8,
        "contract": "contracts/BuzzMintCollectionFactory.sol:BuzzMintCollectionFactory",
        "label": "_owner",
        "offset": 0,
        "slot": "0",
        "type": "t_address"
      },
      {
        "astId": 5572,
        "contract": "contracts/BuzzMintCollectionFactory.sol:BuzzMintCollectionFactory",
        "label": "stampIdToContract",
        "offset": 0,
        "slot": "1",
        "type": "t_mapping(t_string_memory_ptr,t_address)"
      },
      {
        "astId": 5577,
        "contract": "contracts/BuzzMintCollectionFactory.sol:BuzzMintCollectionFactory",
        "label": "userStampIds",
        "offset": 0,
        "slot": "2",
        "type": "t_mapping(t_address,t_array(t_string_storage)dyn_storage)"
      },
      {
        "astId": 5581,
        "contract": "contracts/BuzzMintCollectionFactory.sol:BuzzMintCollectionFactory",
        "label": "stampIdToOwner",
        "offset": 0,
        "slot": "3",
        "type": "t_mapping(t_string_memory_ptr,t_address)"
      }
    ],
    "types": {
      "t_address": {
        "encoding": "inplace",
        "label": "address",
        "numberOfBytes": "20"
      },
      "t_array(t_string_storage)dyn_storage": {
        "base": "t_string_storage",
        "encoding": "dynamic_array",
        "label": "string[]",
        "numberOfBytes": "32"
      },
      "t_mapping(t_address,t_array(t_string_storage)dyn_storage)": {
        "encoding": "mapping",
        "key": "t_address",
        "label": "mapping(address => string[])",
        "numberOfBytes": "32",
        "value": "t_array(t_string_storage)dyn_storage"
      },
      "t_mapping(t_string_memory_ptr,t_address)": {
        "encoding": "mapping",
        "key": "t_string_memory_ptr",
        "label": "mapping(string => address)",
        "numberOfBytes": "32",
        "value": "t_address"
      },
      "t_string_memory_ptr": {
        "encoding": "bytes",
        "label": "string",
        "numberOfBytes": "32"
      },
      "t_string_storage": {
        "encoding": "bytes",
        "label": "string",
        "numberOfBytes": "32"
      }
    }
  }
}